:020000040800F2
:1000000000000220250200086D0200086D020008B1
:100010006D0200086D0200080000000000000000F2
:1000200000000000000000006D0200086D020008E2
:10003000000000006D0200086D0200086D0200085B
:100040006D0200086D0200086D0200086D020008D4
:100050006D0200086D0200086D0200086D020008C4
:100060006D0200086D0200086D0200086D020008B4
:100070006D0200086D0200086D0200086D020008A4
:100080006D0200086D0200086D0200086D02000894
:100090006D0200086D0200086D0200086D02000884
:1000A0006D0200086D0200086D0200086D02000874
:1000B0006D0200086D0200086D0200086D02000864
:1000C0006D0200086D0200086D0200086D02000854
:1000D0006D0200086D0200086D0200086D02000844
:1000E0006D0200086D0200086D0200086D02000834
:1000F0006D0200086D0200086D0200086D02000824
:100100006D0200086D0200086D0200086D02000813
:100110006D0200086D0200086D0200086D02000803
:100120006D0200086D0200086D0200086D020008F3
:100130006D0200086D0200086D0200086D020008E3
:100140006D0200086D0200086D0200086D020008D3
:100150006D0200086D0200086D0200086D020008C3
:100160006D0200086D0200086D0200086D020008B3
:100170006D0200086D0200086D0200086D020008A3
:100180006D0200086D0200086D0200086D02000893
:100190006D0200086D0200086D0200086D02000883
:0801A0006D0200086D02000869
:1001A80080B483B000AF194B1B68184A43F00203B0
:1001B8001360174B1B68164A43F480631360144B93
:1001C8001B68134A23F400631360124B1B68114A1F
:1001D80043F02003136000237B6002E07B68013357
:1001E8007B607B680C4A9342F8DD0A4B1B68094A1E
:1001F80023F02003136000233B6002E03B680133D7
:100208003B603B68044A9342F8DDDEE73038024041
:1002180000040240140402403F420F00DFF82CD0D3
:100228000B480C490C4A914204D250F8043B41F85F
:10023800043BF8E709490A4A0023914202D241F8EF
:10024800043BFAE7FFF7ACFFFEE7000000000220DE
:1002580070020008000000200000002000000020BC
:0802680000000020FFF7FEBFBB
:0400000508000225C8
:00000001FF
