:020000040800F2
:1000000000000220C1010008000000000000000004
:1000100000000000000000000000000000000000E0
:1000200000000000000000000000000000000000D0
:1000300000000000000000000000000000000000C0
:1000400000000000000000000000000000000000B0
:1000500000000000000000000000000000000000A0
:100060000000000000000000000000000000000090
:100070000000000000000000000000000000000080
:100080000000000000000000000000000000000070
:100090000000000000000000000000000000000060
:1000A0000000000000000000000000000000000050
:1000B0000000000000000000000000000000000040
:1000C0000000000000000000000000000000000030
:1000D0000000000000000000000000000000000020
:1000E0000000000000000000000000000000000010
:1000F0000000000000000000000000000000000000
:1001000000000000000000000000000000000000EF
:1001100000000000000000000000000000000000DF
:1001200000000000000000000000000000000000CF
:1001300000000000000000000000000000000000BF
:1001400000000000000000000000000000000000AF
:10015000000000000000000000000000000000009F
:10016000000000000000000000000000000000008F
:10017000000000000000000000000000000000007F
:10018000000000000000000000000000000000006F
:10019000000000000000000000000000000000005F
:0C01A00000000000000000000000000053
:1001AC0080B500AF01220D21432000F089F800BF7B
:1001BC0080BD00000B4C02E00023236004340A4B8A
:1001CC009C42F9D3094C0A4D05E02A46151D2346DD
:1001DC001C1D12681A60074B9C42F6D3FFF7E0FF18
:1001EC00FEE700BF000000200000002000000020FF
:1001FC003C0300080000002080B485B000AF03462B
:10020C000A46FB8013467B71FB881B0A9BB29B0240
:10021C0003F1804303F50033FB60FB88DBB2012262
:10022C009A407B79002B01D0002300E010239A40E8
:10023C00FB689A6100BF1437BD4680BC704780B420
:10024C0083B000AF786000BF7B685A1E7A60002BC9
:10025C00FAD100BF00BF0C37BD4680BC704780B4DC
:10026C0085B000AF03460A46FB8013467B71FB88C2
:10027C001B0A9BB29B0203F1804303F50033FB6026
:10028C00FB88DBB2BB60FB681A68BB685B000321B0
:10029C0001FA03F3DB431A40FB681A60FB681B6826
:1002AC007A7902F00301BA68520001FA02F21A4399
:1002BC00FB681A6000BF1437BD4680BC7047000055
:1002CC0080B584B000AF03463960FB711346BB7137
:1002DC00FB79413B1B021AB23B681BB213431BB2A6
:1002EC00FB81114B1A6BFB891B0A9BB2194601232C
:1002FC008B400D4913430B63BA79FB8911461846A1
:10030C00FFF7ADFFFB8901211846FFF775FF074882
:10031C00FFF795FFFB8900211846FFF76DFF034897
:10032C00FFF78DFFEEE700BF003802403F420F00A1
:04000005080001C12D
:00000001FF
