:020000040800F2
:1000000000000220C50100080D0200080D020008D2
:100010000D0200080D0200080D020008000000009B
:100020000000000000000000000000000D020008B9
:100030000D020008000000000D020008B9020008CF
:100040000D0200080D0200080D0200080D02000854
:100050000D0200080D0200080D0200080D02000844
:100060000D0200080D0200080D0200080D02000834
:100070000D0200080D0200080D0200080D02000824
:100080000D0200080D0200080D0200080D02000814
:100090000D0200080D0200080D0200080D02000804
:1000A0000D0200080D0200080D0200080D020008F4
:1000B0000D0200080D0200080D0200080D020008E4
:1000C0000D0200080D0200080D0200080D020008D4
:1000D0000D0200080D0200080D0200080D020008C4
:1000E0000D0200080D0200080D0200080D020008B4
:1000F0000D0200080D0200080D0200080D020008A4
:100100000D0200080D0200080D0200080D02000893
:100110000D0200080D0200080D0200080D02000883
:100120000D0200080D0200080D0200080D02000873
:100130000D0200080D0200080D0200080D02000863
:100140000D0200080D0200080D0200080D02000853
:100150000D0200080D0200080D0200080D02000843
:100160000D0200080D0200080D0200080D02000833
:100170000D0200080D0200080D0200080D02000823
:100180000D0200080D0200080D0200080D02000813
:100190000D0200080D0200080D0200080D02000803
:0C01A0000D0200080D0200080D0200080E
:1001AC0080B500AF034B01220D21432000F08CF8E9
:1001BC0000BF80BD0024F400DFF82CD00B480C49A4
:1001CC000C4A914204D250F8043B41F8043BF8E746
:1001DC0009490A4A0023914202D241F8043BFAE74A
:1001EC00FFF7DEFFFEE700000000022078030008A6
:1001FC00000000200000002000000020040000206F
:10020C00FFF7FEBF80B485B000AF03460A46FB8003
:10021C0013467B71FB881B0A9BB29B0203F1804344
:10022C0003F50033FB60FB88DBB201229A407B793B
:10023C00002B01D0002300E010239A40FB689A6148
:10024C0000BF1437BD4680BC704780B485B000AF8A
:10025C0003460A46FB8013467B71FB881B0A9BB244
:10026C009B0203F1804303F50033FB60FB88DBB298
:10027C00BB60FB681A68BB685B00032101FA03F3DF
:10028C00DB431A40FB681A60FB681B687A7902F042
:10029C000301BA68520001FA02F21A43FB681A60B1
:1002AC0000BF1437BD4680BC7047000080B400AF5F
:1002BC00044B1B680133034A136000BFBD4680BC6E
:1002CC00704700BF0000002080B588B000AFB96057
:1002DC007B600346FB731346BB73FB7B413B1BB23A
:1002EC001B021AB2BB681BB213431BB2FB821D4B21
:1002FC001A6BFB8A1B0A9BB2194601238B401949C6
:10030C0013430B63BA7BFB8A11461846FFF79DFF1C
:10031C000023FB77144B1B683B613A697B681344E1
:10032C00BB61114B1B683B613A69BB699A42F8D3BC
:10033C00FA7FFB8A11461846FFF764FFFB7F002B00
:10034C0014BF01230023DBB283F00103DBB2FB7784
:10035C00FB7F03F00103FB77BA697B681344BB6135
:0C036C00DFE700BF003802400000002066
:04000005080001C529
:00000001FF
