:020000040800F2
:1000000000000220D10100081902000819020008AE
:100010001902000819020008190200080000000077
:1000200000000000000000000000000019020008AD
:100030001902000800000000190200084D04000821
:100040001902000819020008190200081902000824
:100050001902000819020008190200081902000814
:100060001902000819020008190200081902000804
:1000700019020008190200081902000819020008F4
:1000800019020008190200081902000819020008E4
:1000900019020008190200081902000819020008D4
:1000A00019020008190200081902000819020008C4
:1000B00019020008190200081902000819020008B4
:1000C00019020008190200081902000819020008A4
:1000D0001902000819020008190200081902000894
:1000E0001902000819020008190200081902000884
:1000F0001902000819020008190200081902000874
:100100001902000819020008190200081902000863
:100110001902000819020008190200081902000853
:100120001902000819020008190200081902000843
:100130001902000819020008190200081902000833
:100140001902000819020008190200081902000823
:100150001902000819020008190200081902000813
:100160001902000819020008190200081902000803
:1001700019020008190200081902000819020008F3
:1001800019020008190200081902000819020008E3
:1001900019020008190200081902000819020008D3
:0C01A000190200081902000819020008EA
:1001AC0080B500AF00F0CAF8054800F02BF94FF409
:1001BC00FA7301220D21432000F050F900BFFDE736
:1001CC00801D2C04DFF82CD00B480C490C4A9142B2
:1001DC0004D250F8043B41F8043BF8E709490A4AB9
:1001EC000023914202D241F8043BFAE7FFF7D8FF13
:1001FC00FEE70000000002200C05000800000020B3
:10020C00000000200000002004000020FFF7FEBFCB
:10021C0080B485B000AF03460A46FB8013467B7161
:10022C00FB881B0A9BB29B0203F1804303F500334E
:10023C00FB60FB88DBB201229A407B79002B01D05A
:10024C00002300E010239A40FB689A6100BF14372A
:10025C00BD465DF8047B704780B485B000AF0346A3
:10026C000A46FB8013467B71FB881B0A9BB29B02E0
:10027C0003F1804303F50033FB60FB88DBB2BB600A
:10028C00FB681A68BB685B00032101FA03F3DB43CC
:10029C001A40FB681A60FB681B687A7902F003014C
:1002AC00BA68520001FA02F21A43FB681A6000BFE6
:1002BC001437BD465DF8047B7047000080B483B0F2
:1002CC0000AF0C4B7B6007E07B68013B7B607B687D
:1002DC00002B01D1002306E0074B1B6803F400330D
:1002EC00002BF1D0012318460C37BD465DF8047B7A
:1002FC00704700BF40420F000038024080B483B00A
:10030C0000AF0C4B7B6007E07B68013B7B607B683C
:10031C00002B01D1002306E0074B1B6803F0007390
:10032C00002BF1D0012318460C37BD465DF8047B39
:10033C00704700BF40420F000038024080B500AF4C
:10034C002C4B1B6F2B4A43F4700313672A4B1B680F
:10035C00294A23F00F031360274B1B68264A43F4EA
:10036C00407343F003031360244B1B68234A43F48C
:10037C0080331360FFF7A2FF034683F00103DBB267
:10038C00002B01D000BFFDE71C4B9B681B4A23F4DC
:10039C007C439360194B1A4A5A60184B9B68174A56
:1003AC0043F480539360154B1B68144A43F08073DD
:1003BC001360FFF7A3FF034683F00103DBB2002BAE
:1003CC0001D000BFFDE70D4B9B680C4A23F00303E3
:1003DC0093600A4B9B68094A43F00203936000BF89
:1003EC00064B9B6803F00C03082BF9D100BF00BF30
:1003FC0080BD00BF00ED00E0003C02400038024030
:10040C008811400080B485B000AF78607B680A4AE0
:10041C00A2FB03239B09FB60084AFB68013B53606A
:10042C00064B00229A60054B07221A6000BF143756
:10043C00BD465DF8047B7047D34D621010E000E0C0
:10044C0080B400AF044B1B680133034A136000BF38
:10045C00BD465DF8047B70470000002080B588B075
:10046C0000AFB9607B600346FB731346BB73FB7B29
:10047C00413B1BB21B021AB2BB681BB213431BB22B
:10048C00FB821D4B1A6BFB8A1B0A9BB2194601237C
:10049C008B40194913430B63BA7BFB8A11461846F0
:1004AC00FFF7DAFE0023FB77144B1B683B613A69BC
:1004BC007B681344BB61114B1B683B613A69BB6998
:1004CC009A42F8D3FA7FFB8A11461846FFF7A0FE32
:1004DC00FB7F002B14BF01230023DBB283F001034D
:1004EC00DBB2FB77FB7F03F00103FB77BA697B6818
:1004FC001344BB61DFE700BF00380240000000205E
:04000005080001D11D
:00000001FF
