:020000040800F2
:1000000000000220B90100080102000801020008F6
:1000100001020008010200080102000800000000BF
:1000200000000000000000000000000001020008C5
:10003000010200080000000001020008B9030008E6
:100040000102000801020008010200080102000884
:100050000102000801020008010200080102000874
:100060000102000801020008010200080102000864
:100070000102000801020008010200080102000854
:10008000010200080102000801020008000000004F
:100090000000000000000000000000000102000855
:1000A0000102000801020008010200080102000824
:1000B0000102000801020008010200080102000814
:1000C0000102000801020008010200080102000804
:1000D00001020008010200080102000800000000FF
:1000E00001020008010200080102000800000000EF
:1000F00000000000000000000000000001020008F5
:1001000000000000010200080102000801020008CE
:1001100000000000000000000000000000000000DF
:1001200001020008010200080102000801020008A3
:1001300001020008000000000000000000000000B4
:1001400000000000000000000000000001020008A4
:100150000102000801020008010200080102000873
:100160000102000801020008000000000000000079
:10017000000000000000000000000000000000007F
:100180000000000001020008000000000000000064
:08019000010200080102000851
:1001980008B500F07BF8054800F0ECF84FF4FA7366
:1001A80001220D21432000F00BF9FEE7801D2C04ED
:1001B800DFF82CD00B480C490C4A914204D250F875
:1001C800043B41F8043BF8E709490A4A00239142F5
:1001D80002D241F8043BFAE7FFF7DAFFFEE7000036
:1001E8000000022018040008000000200000002081
:1001F8000000002004000020FFF7FEBF030A9B0256
:1002080003F1804303F50033C0B20122824019B1E3
:1002180000218A409A6170471021FAE7030A9B027D
:1002280003F1804303F50033C0B21A6840004FF071
:10023800030C0CFA00FC22EA0C021A601A6801F09E
:10024800030181400A431A6070470000054B064AC3
:10025800126812F4003F03D1013BF8D10020704727
:100268000120704740420F0000380240054B064A03
:10027800126812F0007F03D1013BF8D100207047CB
:100288000120704740420F000038024008B5364A46
:10029800136F43F470031367344B1A6822F00F028C
:1002A8001A601A68032161F303021A601A6842F49B
:1002B80080721A601A6842F400721A601A6842F46E
:1002C80080621A602A4A136843F480331360FFF788
:1002D800BDFF00B9FEE7264B9A6822F0F0029A604B
:1002E8009A68052161F3CD229A609A6861F30A221F
:1002F8009A609A6822F47C429A605A68082161F3ED
:1003080005025A605A68462161F38E125A605A688B
:1003180022F4C0325A605A6842F400125A601A68CD
:1003280042F080721A60FFF7A1FF00B9FEE7104B98
:100338009A6822F003029A609A6842F002029A6070
:100348000B4B9B68C3F38103022BF9D1084B5A6B03
:1003580042F001025A635A6B42F002025A635A6B26
:1003680042F004025A6308BD00ED00E0003C024080
:10037800003802400D4BA3FB003292094FF0E023F6
:10038800196921F001011961013A5A6100229A6143
:100398001A6942F004021A611A6942F002021A61EB
:1003A8001A6942F001021A61704700BFD34D62100A
:1003B800024A136801331360704700BF0000002031
:1003C800F8B51E46413841EA00239FB20E4D686BCE
:1003D800C3F30723012404FA03F303436B631146B1
:1003E8003846FFF71BFF094B1C6834440025074AB1
:1003F80012689442FBD829463846FFF7FFFE85F07D
:1004080001053444F3E700BF003802400000002033
:04000005080001B935
:00000001FF
