:020000040800F2
:1000000000000220B90100080102000801020008F6
:1000100001020008010200080102000800000000BF
:1000200000000000000000000000000001020008C5
:100030000102000800000000010200085D03000842
:100040000102000801020008010200080102000884
:100050000102000801020008010200080102000874
:100060000102000801020008010200080102000864
:100070000102000801020008010200080102000854
:10008000010200080102000801020008000000004F
:100090000000000000000000000000000102000855
:1000A0000102000801020008010200080102000824
:1000B0000102000801020008010200080102000814
:1000C0000102000801020008010200080102000804
:1000D00001020008010200080102000800000000FF
:1000E00001020008010200080102000800000000EF
:1000F00000000000000000000000000001020008F5
:1001000000000000010200080102000801020008CE
:1001100000000000000000000000000000000000DF
:1001200001020008010200080102000801020008A3
:1001300001020008000000000000000000000000B4
:1001400000000000000000000000000001020008A4
:100150000102000801020008010200080102000873
:100160000102000801020008000000000000000079
:10017000000000000000000000000000000000007F
:100180000000000001020008000000000000000064
:08019000010200080102000851
:1001980008B500F07BF8054800F0BEF84FF4FA7394
:1001A80001220D21432000F0DDF8FEE7801D2C041C
:1001B800DFF82CD00B480C490C4A914204D250F875
:1001C800043B41F8043BF8E709490A4A00239142F5
:1001D80002D241F8043BFAE7FFF7DAFFFEE7000036
:1001E80000000220BC0300080000002000000020DE
:1001F8000000002004000020FFF7FEBF030A9B0256
:1002080003F1804303F50033C0B20122824019B1E3
:1002180000218A409A6170471021FAE7030A9B027D
:1002280003F1804303F50033C0B21A6840004FF071
:10023800030C0CFA00FC22EA0C021A601A6801F09E
:10024800030181400A431A6070470000054B064AC3
:10025800126812F4003F03D1013BF8D10020704727
:100268000120704740420F0000380240054B064A03
:10027800126812F0007F03D1013BF8D100207047CB
:100288000120704740420F000038024008B51E4A5E
:10029800136F43F4700313671C4A136823F00F03AA
:1002A8001360136843F4407343F003031360A2F52B
:1002B8008062136843F480331360FFF7C7FF00B907
:1002C800FEE7134B9A6822F47C429A60114A5A60FE
:1002D8009A6842F480529A601A6842F080721A60F2
:1002E800FFF7C4FF00B9FEE7094B9A6822F0030242
:1002F8009A609A6842F002029A60054B9B6803F084
:100308000C03082BF9D108BD00ED00E0003C0240C9
:1003180000380240881140000D4BA3FB00329209BF
:100328004FF0E023196921F001011961013A5A617E
:1003380000229A611A6942F004021A611A6942F0AD
:1003480002021A611A6942F001021A61704700BF7D
:10035800D34D6210024A136801331360704700BF1F
:1003680000000020F8B51E46413841EA00239FB23C
:100378000E4D686BC3F30723012404FA03F3034308
:100388006B6311463846FFF749FF094B1C68344434
:100398000025074A12689442FBD829463846FFF7D9
:1003A8002DFF85F001053444F3E700BF0038024013
:0403B8000000002021
:04000005080001B935
:00000001FF
